:10000000801F0020611A00009D590000351A000071
:10001000351A0000351A0000351A000000000000F3
:100020000000000000000000000000005517000064
:10003000351A00000000000001170000351A00000A
:10004000051800000518000005180000051800003C
:10005000051800000518000005180000051800002C
:10006000051800000518000005180000051800001C
:10007000051800000518000005180000051800000C
:1000800005180000051800000518000005180000FC
:1000900005180000051800000518000005180000EC
:1000A00005180000051800000518000005180000DC
:1000B00005180000051800000518000005180000CC
:1000C00005180000051800000518000005180000BC
:1000D00005180000051800000518000005180000AC
:1000E000051800000518000005180000051800009C
:1000F000051800000518000005180000051800008C
:1001000053B94AB9002908BF00281CBF4FF0FF317E
:100110004FF0FF3000F00CB8ADF1080C6DE904CEE3
:1001200000F008F8DDF804E0DDE9022304B07047D0
:10013000704700BF2DE9F04786468C460846089E6A
:10014000154674461946002B40F0C2808542B2FA2B
:1001500082F245D94AB1C2F1200300FA02FC2EFA1C
:1001600003F3954043EA0C0C94404FEA154EA8B2B5
:10017000BCFBFEF8230C0EFB18CC08FB00F943EA8D
:100180000C43994528D9EB1808F1FF3704D299455B
:1001900002D9A8F102072B44A3EB0903A4B2B3FBD5
:1001A000FEFC0EFB1C330CFB00F044EA0344A042AF
:1001B00014D92C190CF1FF3304D2A04202D9ACF1AE
:1001C00002032C44241A43EA07401EB1D440002302
:1001D00034607360BDE8F0874746DDE76346F1E7CA
:1001E00092BB431B01214FEA154EAFB2B3FBFEFC9D
:1001F000200C0EFB1C330CFB07F840EA0343984528
:1002000062D9EB180CF1FF3004D2984502D9ACF159
:1002100002002B44A3EB0803A4B2B3FBFEFC0EFBCD
:100220001C330CFB07F744EA0344A7424ED92C19B0
:100230000CF1FF3304D2A74202D9ACF102032C44E3
:10024000E41B43EA0040C0E7C2F1200320FA03F1B7
:10025000954090402EFA03F303434FEA154EAFB298
:10026000B1FBFEFC0EFB1C10190C0CFB07F841EA5D
:100270000041884504FA02F422D969180CF1FF30D4
:1002800004D2884502D9ACF102002944A1EB08014F
:100290009BB2B1FBFEFC0EFB1C110CFB07F743EA03
:1002A00001439F420ED9EB180CF1FF3104D29F425B
:1002B00002D9ACF102012B44DB1B41EA004192E779
:1002C0006046E3E76146F7E76046A3E76346B7E7C2
:1002D000834206D916B9002108467BE7C6E900E04B
:1002E000F9E7B3FA83F78FB9834201D3724508D88F
:1002F000BEEB020460EB030301209C461EB9002103
:1003000068E73846FAE7C6E9004CF8E7C7F1200C81
:10031000BB4022FA0CF41C432EFA0CF120FA0CF329
:10032000B84001434FEA14490EFA07F5B3FBF9F858
:100330001FFA84FE09FB18300B0C08FB0EFA43EA87
:1003400000439A4502FA07F240D9E31808F1FF305A
:1003500004D29A4502D9A8F102002344A3EB0A0370
:1003600089B2B3FBF9F809FB183308FB0EFE41EA2A
:1003700003418E452CD9611808F1FF3304D28E4514
:1003800002D9A8F10203214443EA0040A0FB0298ED
:10039000A1EB0E014145CE46434602D306D14D4561
:1003A00004D2B9EB020E68EB04030138002EA6D08C
:1003B000B5EB0E0261EB030101FA0CFC22FA07F324
:1003C0004CEA0303F940C6E9003198E74046C5E727
:1003D0004346D9E710B5414B1878002878D0404BF8
:1003E0000022194613F8014B232C05D0013290420C
:1003F000F8DC6FF0030018E09042FADD8B185C78AF
:100400004C2C1CD11C79212CF3D103328242F0DA1E
:100410009B78303B032BECD8DFE803F002080B0E8F
:10042000895C304805F035F9002010BD895C2E4804
:10043000F8E7895C2D48F5E7895C2D48F2E7542CF4
:1004400049D1DA79212AD4D19A78322A18D0332A9C
:100450002AD0312ACDD11A79D9786420303A30396E
:1004600042434FF47A7000FB012259799B7930396D
:100470000A2000FB0122303B13441E4A1360D3E7DD
:100480001A79D9786420303A303942434FF47A707F
:1004900000FB012259799B7930390A2000FB0122A7
:1004A000303B1344144AE9E71A79D9786420303A8A
:1004B000303942434FF47A7000FB012259799B791D
:1004C00030390A2000FB0122303B13440B4AD5E7A8
:1004D0004FF0FF30A9E76FF00100A6E7D00D002034
:1004E000D10D0020F06B0000E86B0000E06B000015
:1004F000D86B00000C000020080000200400002041
:1005000030B5134D2B78092B1ED81249124A0C68AE
:1005100023280DD101340C600C68012C02D1146821
:10052000012C0BD000230B6013606FF0030030BD73
:10053000212802BF146801341460EDE7074AD05443
:1005400001332B700020F2E74FF0FF30EFE700BFE0
:10055000D00D0020DC040020D8040020D10D0020A4
:1005600070B50A78022A02D0052A19D070BDCB686E
:10057000002BFBD00F4D002415F8010B212809D1C9
:10058000FFF7BEFFFFF726FFBDE8704001460A48AF
:1005900005F0C6B80134FFF7B3FF0A2CECD1F1E740
:1005A00083680449DC680A22A4466423BDE87040DD
:1005B000604700BFDB0D0020546E000070B55F483F
:1005C00005F065F820B95E48BDE8704005F0A8B8B0
:1005D0005A4805F05CF808B95A48F5E7574805F05D
:1005E00056F808B95848EFE7544805F050F808B9EC
:1005F0005648E9E7514805F04AF808B95448E3E796
:100600004E4805F044F808B95248DDE74B4805F07C
:100610003EF808B95048D7E7484805F038F808B917
:100620004E48D1E74E4D286805F031F808B94D48DD
:10063000CAE74D4805F02BF830B94B4B4B481968C9
:10064000BDE8704005F06CB849494A484A4C04F08E
:10065000FFFF00280146206001DA4848F0E74449DE
:10066000474804F0F5FF00280146206001DA4548BC
:10067000E6E73F49444804F0EBFF002801462060CC
:1006800001DA4248DCE73A49414804F0E1FF00283A
:100690000146206001DA3F48D2E73F493F4804F075
:1006A000D7FF00280146206001DA3D48C8E73A49F3
:1006B0003C4804F0CDFF00280146206001DA3A48AA
:1006C000BEE73549394804F0C3FF002801462060E1
:1006D00001DA3748B4E73049364804F0B9FF00285A
:1006E0000146206001DA3448AAE7286883681B685D
:1006F0001BB96FF05703236070BD30490022984743
:1007000020600028F8D1286883682D495E6814228B
:100710004FF0FF33B04720600028EDD12868836890
:100720002849DD680A226423A84720600028E3D115
:100730004FF47A7004F0C1FFFAE700BFA869000027
:100740006E6E0000926E0000B66E0000DA6E000061
:10075000FE6E0000226F0000466F00006A6F00000E
:10076000000000208E6F0000F0690000A66F0000FE
:1007700001001A00F06B0000E0040020C16F0000CF
:10078000E86B0000E86F0000E06B00000F700000F5
:10079000D86B00003670000010000100D06B000024
:1007A0005D700000C86B000084700000C06B00002A
:1007B000AB700000B86B0000D27000006105000053
:1007C00080010020DB0D00200B6801330B60014B22
:1007D0001B68184710000020014B1860704700BFCD
:1007E0001000002007B50B46002102460191034886
:1007F00001A900F013F903B05DF804FBC90700007C
:100800002DE9F047058B04462807904611D40229AC
:1008100005F0070540F0CD80204604F08EFF78B14A
:100820000138218B042811D8DFE800F0C3106D8552
:10083000950001290CBF45F0100545F020052583E2
:1008400088F31188BFF36F8FBDE8F08701F0070AC6
:10085000AA4500F0A6800027B9463E46A368002BB3
:1008600000F0BD8041F00801218388F31188BFF3B7
:100870006F8FA168002900F0BB800D68002900F08F
:10088000B780D1F80480334652462046C047002D39
:1008900076D02B6829461D46F0E701F007035A1F62
:1008A000012A1BD8002221F00701062B276889B2F4
:1008B000C4E9002209D13B4603E0628B1B68013288
:1008C0006283002BF9D141F002012183204604F01C
:1008D00034FF00287BD041F0200177E0042B0AD1BF
:1008E00021F0070189B22183204604F026FF10B1D0
:1008F00041F020012183218B01F0070AAA4550D045
:100900000027B946AAE7236921F0070141F0060153
:10091000062DD3F8009021832DD1B9F1000F40D0DE
:1009200041F00801218388F31188BFF36F8F3A49A2
:100930002046C84729E021F00701236941F004015E
:1009400089B2042DD3F804902183E6D000273E46D7
:100950004FF0040A82E721F00701236941F0050105
:1009600089B2052DD3F808902183D6D000273E46C2
:100970004FF0050A72E700273E464FF0060A6DE782
:100980002B4687E7B9F1000FD1D14FF02003EFF3E9
:10099000118883F31288BFF36F8F238B23F0080332
:1009A0002383258BEA062ED525F01003238305F03B
:1009B00007056669218B002EBFF66FAF00232768FD
:1009C000C4E9003321F0070141F001012183218BAB
:1009D00001F0070AAA454FF000097FF43FAF002F4E
:1009E0009BD041F00801218388F31188BFF36F8FFA
:1009F000002FC7D03D68394633465246204604F0A2
:100A0000C8FE2F46F4E7AB067FF51AAF25F02003AA
:100A1000238305F00705FFE6BF5700002DE9F04FDF
:100A2000814695B08B4617461C460025387808B994
:100A3000284658E37B1C2528039306D05946C8470F
:100A40000028C0F25083013504E2182200210EA8CC
:100A500004F0D0FF7B78252B7DD00023781C9846AE
:100A60009E469C461E46014610F8012B2B2A00F09C
:100A7000A18000F29880202A00F09F80232A00F0B5
:100A80009F802BB19DF8403043F040038DF84030FB
:100A9000B8F1000F05D09DF8403043F020038DF8E9
:100AA0004030BEF1000F05D09DF8403043F01003F8
:100AB0008DF84030BCF1000F05D09DF8403043F078
:100AC00008038DF840302EB19DF8403043F0040308
:100AD0008DF840309DF8403003F04400442803D1A5
:100AE0006FF386138DF840309DF840302A2A43F08A
:100AF00080038DF840307FD19DF8412042F0010203
:100B00004B1C8DF841201A782E2A9DF841200CBFED
:100B10000121002161F341028DF8412078D15A78FA
:100B20002A2A6ED0013300224FF00A0C194611F820
:100B3000010BA0F13006092E40F295809DF840107F
:100B40001292C1F3400040EAD2700A4660F34102BB
:100B50008DF840205CE0BA1C03928DF843309DF87C
:100B60004130DA0740F12E8154F8048BB8F1000FC0
:100B700007DA9DF8402042F004028DF84020C8F1C9
:100B800000085E0740F1278154F804ABBAF1000F6A
:100B900080F226819DF841306FF341038DF841309A
:100BA0004FF0FF3A1CE12D2A0DD0302A7FF469AFB7
:100BB000012358E74FF0010C55E74FF0010E52E7C3
:100BC0004FF001084FE701264DE70EFB0262303A75
:100BD0000346184610F8016BA6F1300CBCF1090F62
:100BE000F3D999428FD09DF840101192D20F62F341
:100BF00041018DF8401086E70B4600224FF00A0EA7
:100C0000E7E79DF8412042F004028DF841200233CD
:100C10001A786C2A47D02BD8682A31D06A2A4BD050
:100C20004C2A51D01A4612F8013B0392782B9DF8BA
:100C300041208DF8433000F2BE806D2B51D8692BD6
:100C400000F2B980572B67D8412B03D0453B022BCC
:100C500000F2B1809DF84230042262F302038DF865
:100C60004230012373E00CFB0202303A0B465DE791
:100C7000742A25D07A2AD5D19DF8412006210CE08E
:100C80005A78682A9DF8412006D1012161F3C602F5
:100C90008DF841200233C5E7022161F3C6028DF8C9
:100CA00041200133BEE75A786C2A9DF8412001D1DA
:100CB0000421EBE70321F0E79DF841200521ECE753
:100CC0009DF841200721E8E7BDF8402022F4F042DA
:100CD00022F0020242F4804242F00202ADF84020CB
:100CE000DFE76E3BD9B201238B4040F282410B42D9
:100CF00037D113F0240F51D1D8075CD59DF842307D
:100D0000032161F302038DF8423002F07803A3F16E
:100D100040014B424B411AE0A3F15801C9B20120F6
:100D200000FA01F111F4624F94D140F6010631420C
:100D30001DD111F4043F3ED09DF8423060F3020310
:100D400002F07802402A8DF8423034D000239DF81A
:100D50004020C2F340010B4363F341028DF8402071
:100D6000FDE69DF84230022161F30203E8E79DF8B9
:100D70004210022002F0780260F30201402A8DF84E
:100D8000421002BF9DF8401041F001018DF8401063
:100D9000632BDBD1131E18BF0123D8E79DF8423027
:100DA000032161F3020312F0780F8DF8423014BF73
:100DB00001230023CBE79DF8403043F001038DF879
:100DC0004030C3E79DF94020002AB4BFDDF84480DD
:100DD0004FF0FF38D5E698077FF5E2AEDDF848A082
:100DE0009DF841100023CDE911339DF8423003F006
:100DF0000703012BC1F3C30133D1CB1E042B04D84D
:100E0000DFE803F0104646101000236801294FEA7E
:100E1000E372CDE90E320BD103F0FF030E930023F2
:100E20000F9307E054F8043BDA17CDE90E3202E0E5
:100E3000022911D004349DF8403013F0030647D046
:100E4000039B3A465946484604F082FD0028C0F20A
:100E50004A810544039FE9E51AB20E9243F3C03379
:100E6000DEE7022B24D1CB1E042B04D8DFE803F0ED
:100E7000181010181800012954F8043B4FF0000214
:100E800014D00229CDE90E32D5D19BB20E93D2E710
:100E9000073424F00704F4E80223CDE90E23CAE75F
:100EA00054F8043B0E9300230F93C4E7DBB2BCE776
:100EB000042B08D1073424F00704D4E900230834B4
:100EC000CDE90E23B7E7032BB5D154F8043BDDE79A
:100ED0009DF843007828BDD862281CD825283FF407
:100EE000ADAD5828B6D10DF136030093DDE90E0102
:100EF00008AB10AA04F0E6FCBAF1000F074680F236
:100F00009A80002FA6D00DF13603D81B002E00F0DA
:100F1000C1800130BEE0633815289BD801A252F889
:100F200020F000BFF90F00000B100000550E00006C
:100F3000550E0000550E0000550E00000B1000006D
:100F4000550E0000550E0000550E0000550E000015
:100F5000991000003110000057100000550E0000DD
:100F6000550E00007D0F0000550E000031100000EE
:100F7000550E0000550E000031100000BAF1000FB0
:100F80000E9F35DB5146384604F020FD07EB000A82
:100F9000002F3FF45FAF00269DF8423013F010029F
:100FA000059200F0938002305B06119A48BF129BB5
:100FB0000492104448BFC018B8F1000F40F3A0805D
:100FC0009DF84020A8EB0008C2F380035007069369
:100FD00000F19680510640F189803EB15946304675
:100FE000C84700287FDB069B01351E4630227EE085
:100FF000384604F0E4FCC9E70E9B8DF8203000264B
:1010000008AF0DF1210A0120C6E719075CBFC3F341
:1010100000135E01DDE90E2348BF2B26002BBFF62F
:1010200062AF524263EB4303CDE90E232D265AE70C
:10103000002658E700269DF840200DF13603DB1B03
:101040006FF386129A458DF840207FF65AAFAAEBCF
:101050000303119355E70E9890B30DF136030093F7
:1010600010AA08AB002104F02DFCBDF8423003F0BB
:10107000EF0343F4F04343F01003BAF1000F0746C7
:10108000ADF84230D6DA00283FF4E4AE0DF1360375
:10109000181A00269A467FE70E9B07293FF6DAAE1C
:1010A000DFE801F00C04060C08080C0C1D70D1E6FA
:1010B0001D80CFE6EA17C3E90052CBE61D60C9E602
:1010C0002E4F064607F1050A052065E71A0748BFB7
:1010D000013069E70793104606925946C847002831
:1010E000DDE9062304DA15B0BDE8F08F202243467F
:1010F0001946002903F1FF33ECDC45446D1A98468C
:101100002EB159463046C8470028ECDB01359DF822
:101110004230DA0601D41B0705D559463020C847AE
:101120000028E0DB0135059B33B19DF843005946AB
:10113000C8470028D7DB0135049E2E4405E05946F8
:101140003020C8470028CEDB0135731B002BF6DCAE
:1011500053463A465946484604F0FAFB0028C2DB9B
:101160000544A844A8EB0503002B7FF773AE59464E
:101170002020C8470028B6DB0135F3E7F9700000EE
:1011800008B54FF02002EFF3118382F31288BFF30A
:101190006F8F00F0E7FD034804F0C2FA00F02AFA6E
:1011A000FCE700BFFF7000002DE9F84305464FF053
:1011B0002003EFF3118683F31288BFF36F8F0E4B7A
:1011C0000E4F1C68DFF838804FF00C092CB986F3FD
:1011D0001188BFF36F8FBDE8F883D4E90123002D98
:1011E00018BF13462BB198F8142009FB02F2B85C23
:1011F00098472468EAE700BFF4040020E8040020D0
:10120000C00B00200A4ABFF35B8F430902EB830245
:1012100000F01F0001238340DB4352E8000F184019
:1012200042E800010029F8D1BFF35B8F704700BF8F
:10123000E404002070B5194B1C7DBFF35B8F04F0F4
:101240001F0301229A40164B610903EB8103D0432F
:1012500053E8001F01EA000543E80056002EF7D1CD
:10126000BFF35B8F0A4213D00E4B0F4D8BB10C2393
:101270006343EA18E85C517804F0D4FB0020FFF7E0
:1012800093FF0C235C432A1900232B51C2E901333D
:1012900070BD83F31188BFF36F8FEFE7C00B0020A1
:1012A000FC040020255A0000E80400202DE9F84342
:1012B000324B334A1C7DBFF35B8F63094FEA8308CF
:1012C00052F823302F4EBFF35B8F04F01F0943FA0F
:1012D00009F313F0010F07460AD10146204600F03A
:1012E00069F828B107C80C2303FB046383E80700EF
:1012F0000C236343F218F55C2DB92046FFF782FFFB
:101300002846BDE8F8837B1C10D0D2F808C01E4DDB
:101310001E4A4FF400400021ECFB005100232846F8
:10132000FEF7EEFE0121381A05F09DFA03F094FC59
:101330000120FFF739FFBFF35B8F154B9844012362
:1013400003FA09F358E8002F1A4348E8002100295E
:10135000F8D1BFF35B8F0F4B33B10C236343F2180B
:10136000F05C517804F052FBFFF764FF2046FFF772
:1013700049FF03F085FC0120C3E700BFC00B00203C
:10138000E4040020E80400203F420F0040420F0028
:10139000FC0400200D5A0000054BBFF35B8F53F88F
:1013A0002000BFF35B8F003818BF0120704700BFDB
:1013B000000500202DE9F74F884601A900F042F80A
:1013C000441E24B204EB4404DFF86C900546A400EC
:1013D00025B92F46384603B0BDE8F08F019B185D54
:1013E0001F19FFF7D9FF064610BB7868134A4FF460
:1013F000004ACC463146E0FB0AC100236046FEF7B6
:101400007FFE8346B8680D4ACC463146E0FB0AC1F0
:1014100000236046FEF774FE094B1B685A1C01D07E
:10142000834205D9B8F1FF3FD4D058444045D1D9C3
:10143000013DADB20C3CCBE73F420F0040420F00F4
:101440001400002008B9024B0B600020704700BF59
:10145000F86B0000014803F06DBF00BFF86B00009F
:1014600010B5044618B90D4B0D485B689847616884
:1014700031F004030CD008290AD011F0020108D081
:101480000848214605F0BFF800232360002363606D
:1014900010BD2068142204F0ADFAF7E72001002007
:1014A000287100001C0A002008B508B34368042B0B
:1014B00010D101220368BFF35B8F53E8001F00299E
:1014C00003D143E800200028F7D1BFF35B8F0BD195
:1014D000002008BD53B100684FF0FF324FF0FF33DA
:1014E00003F0AAF80028F3D00348F2E70348F0E736
:1014F0006FF4E040EDE700BFE98FFFFFEA8FFFFFE9
:1015000008B5C0B14368042B10D100220368BFF3B3
:101510005B8F53E8001F012903D143E80020002816
:10152000F7D1BFF35B8F09D1002008BD43B100683C
:1015300003F0FAF8F8E76FF4E040F6E70148F4E763
:101540000148F2E7E98FFFFFEA8FFFFF10B504467D
:1015500018B9164B16485B6898476368042B23D06C
:10156000082B21D0CBB92368BBB912484FF0FF320A
:101570004FF0FF33214602F087FF08B923681BB9FB
:101580000A4B0D485B68984720681422002104F03C
:1015900031FA636843F002036360206805F071F874
:1015A000636843F00103636010BD00BF20010020A9
:1015B000287100001C0A00204E71000008B5064981
:1015C00006484023142205F003F8BDE8084004490A
:1015D000044803F00FBF00BF1C0500201C0A0020B8
:1015E000006C0000146C0000014910220A60704772
:1015F00010ED00E072B6404080F31188BFF36F8FAA
:10160000BFF34F8F30BF62B6BFF36F8F704700BF1D
:1016100072B6494081F3118820BF80F3118862B609
:10162000704700BF40B2002807DB044A410901238C
:1016300000F01F00834042F82130704700E100E0D5
:10164000054B420900F01F0053F82220012303FA42
:1016500000F01040704700BF00E100E040B20028F9
:10166000A8BF00F1604001F10101B8BF064B4FEA8D
:101670004111ACBF00F5614000F00F00C9B2B4BF2A
:10168000195480F80013704714ED00E030BFFFF7E5
:10169000FDBF00BF0B4A08B50B4B22F07F029A60DA
:1016A000BFF34F8FBFF36F8FD3F8882022F47002FF
:1016B000C3F8882002F018FE03F0FEFB00F0C4F926
:1016C00002F056FE0000000000ED00E0094A0A4961
:1016D000936809689967094958674B6843F08053D4
:1016E0004B60002383F31188BFF36F8F9368986F6B
:1016F000704700BFC00B0020C86D000000ED00E087
:1017000012498A684FF030001044EFF3098C80E8EA
:10171000F01F202080F31288BFF36F8F0C4F4FF023
:101720000066CA698A603E60506F0023536780F389
:10173000118804B5104600F023FABDE8044002F118
:10174000300090E8F01F8CF309887047C00B002030
:1017500004ED00E01EF0040F0CBFEFF30880EFF380
:101760000980816911F8021C0229FFD001B504F03B
:101770000DF901BD42F8203C009B42F81C3C0A498F
:10178000019B42F8183C029B42F8143C21F00101F5
:101790004FF0807342F8043C42F8081C0023203AC2
:1017A00002654367704700BFB1580000094A03460D
:1017B000906870B113F1160F406E05D0A0F12002B1
:1017C0009A4205D8834203D2814228BF0020704745
:1017D00000207047C00B002008B5094B98600D46EB
:1017E000144600F0CDF9204685F30988002163B640
:1017F00081F31188BFF36F8F0022002304F058F8A3
:10180000C00B002001B572B60B4A906900281EBFBC
:101810000021916104F026FF62B6EFF30580A0F18C
:1018200010004FEAC0000549014409C99847BDE8C6
:101830000140034908470000C00B0020086A00006F
:1018400045180000044B9968D869884203D00349C1
:101850004FF080520A607047C00B002004ED00E09A
:101860000D4B9A6A9A6A9A6A920508D59A6B9A6A97
:10187000120404D518B19A6A22F400429A629A6A54
:101880009A6AD205044A58BF9B6A936A002043F4BF
:101890007F4393620870704700ED00E01D4B70B508
:1018A00015469A6A9A6A9A6A9207064622D5586B32
:1018B0009A6A14061ED519B19A6A22F080029A62B9
:1018C0009A6A9A6A9A6A134C12F0100F15D19B6AA1
:1018D000990712D40020A36A0E4A9B0642BF636A8E
:1018E00023F400536362936A43F0FF03936200237F
:1018F0002B7070BD6FF01500E2E763681A05E9D53B
:101900003146FFF753FF0028E4D080F30988022016
:10191000E1E700BF00ED00E070B5414B5B688AB0C5
:101920000546C3F30803002686F31188BFF36F8FC3
:1019300002F07F40B0F17F4F11D102F00C00082877
:101940000DD010074CBF0D4601260022033B8DF839
:101950000720032B3BD8DFE803F00453575B3546E1
:10196000F3E72F4BDA6A910731D4DA6A002A2EDBCB
:10197000DA6A52002BD5AA6932F8021C4DF60272BF
:1019800091420AD093F828204AB10DF107020121B3
:101990002846FFF783FF04461AE02C6818E093F806
:1019A00029202AB10DF107010120FFF759FFF2E7C5
:1019B0005A8D92B25AB19A6A9A6A9A6A9A6A9A6ADD
:1019C0009A6A9A6A6FEA02426FEA12429A620024A5
:1019D0009DF8073093B92022294602A803F0FFFFA3
:1019E000099BBEB1C3F3080222B96FEA53236FEA21
:1019F0004323099302A9204603F0C6FF0AB070BD35
:101A00000DF107020021C3E70DF107010020CCE72B
:101A1000034BD0E723F4FF7323F00103E9E700BF92
:101A200000ED00E0024A536943F010035361704730
:101A300000ED00E0EFF30880EFF3098101B5724695
:101A4000FFF76AFF01BD00BF044800232021C21830
:101A50000133302B82F80013F9D1704700E100E028
:101A6000002080F31488BFF36F8F04F04BFF002039
:101A70000D490860BFF34F8F0C4880F3088800F0D1
:101A80002BF8202080F3118809484FF40261401898
:101A900080F30988EFF314800221084380F314884F
:101AA000BFF36F8FFFF7F6FD94ED00E0801F00207D
:101AB000001200200749D1F890200023C2F307222A
:101AC0001846934200DB7047C1F89830C1F8A00077
:101AD0000133F6E700ED00E008B572B6002383F3AA
:101AE0001388FFF7E7FF144B4FF0FF32C3F8802055
:101AF000C3F88420C3F88820C3F88C20C3F8902052
:101B0000C3F89420C3F89820C3F89C20C3F8802120
:101B1000C3F88421C3F88821C3F88C21C3F890212D
:101B2000C3F89421C3F89821C3F89C2162B6BFF38F
:101B30004F8FBFF36F8F08BD00E100E0084B9B683B
:101B400083420BD1EFF3058343B1064B5A6842F051
:101B500080525A605A6A22F400425A6203F05AB91B
:101B6000C00B002000ED00E0024B034A03480121B6
:101B700000F070B80000042000000020246C000079
:101B8000426E054B203A1A60044A2021C3E9011233
:101B90001846012100F068B8380A002000000B1533
:101BA000F0B5204E00258D4201DB1046F0BD4468A3
:101BB00074B353B104F1FF3C14EA0C0F2FD11F2C66
:101BC0002DD907681CEA070F29D1202C0768D0F807
:101BD00008C05FFA82FE1ED9B4F1004F1DD8013C47
:101BE000B4FA84F4C4F11F046400BEF1070F4CEA98
:101BF000040C14D827F01F04144344F01004C6F852
:101C00009820C6F89C404CF00104C6F8A040013270
:101C100001350C30C7E70824E7E73E24E5E76FF01D
:101C20001502C2E700ED00E0044B0522C3F8942042
:101C3000BFF34F8FBFF36F8F704700BF00ED00E021
:101C4000BFF35F8F024B0022C3F89420704700BFA0
:101C500000ED00E010B5034C01232278FFF7A0FF50
:101C6000207010BDE50D002008B5094A0023127848
:101C7000FFF796FF10F1160F02D0064A072800DD85
:101C800008BDC2F89800C2F8A0300130F6E700BFE6
:101C9000E50D002000ED00E014490868082810B5A3
:101CA00021D8FFF7CDFF124C49680022904201F184
:101CB0000C0105D10F4B1870FFF7B6FF002010BDC7
:101CC000C4F8982051F80C3C23F01F03134343F051
:101CD0001003C4F89C3051F8043C43F00103C4F8ED
:101CE000A0300132E2E74FF0FF30E8E7306C00004F
:101CF00000ED00E0E50D0020014B1860704700BFCB
:101D00003800002010B54FF02003EFF3118083F36B
:101D10001288BFF36F8F114A0123C2F840354FF08C
:101D200080424FF08051C2F87835D1F83041082C0C
:101D300008D1D1F83411052904D8094C615C09B1E6
:101D4000C2F838364FF080430122C3F8802580F373
:101D50001188BFF36F8F002010BD00BF00E001406D
:101D60008A7100004FF08043C0B2C3F81C05BFF376
:101D70004F8F0549054BCA6802F4E0621343CB60FC
:101D8000BFF34F8F00BFFDE700ED00E00400FA0550
:101D900020B1034B800143F001031847704700BF97
:101DA000B06B0000084B70B5C31A0D4607499B1075
:101DB000044659430648402203F056FE2B4601468E
:101DC0002046BDE870401847580A0020B76DDBB6C2
:101DD0007869000073B50C4C0C4A4023041B009337
:101DE0000D460B460A49A41061430646094803F014
:101DF00068FE011E05DA30462B4602B0BDE8704091
:101E0000184702B070BD00BF580A00202F5B0000C9
:101E1000B76DDBB678690000002270B50121044679
:101E20001046FFF71BFC0F4801F074FB0E4B984265
:101E300015D104F054FA26690C49304603F0CDFC64
:101E400000280BDB246909490125356404F11C00D5
:101E500003F0C3FC002801DBE564002070BD6FF0D7
:101E60000400FBE7A51E00000000AD0B506C000055
:101E700001460C2309484B4370B5C418D4E90E56EB
:101E800000224033A263184403F0DBFD2DB132463B
:101E90002B460348BDE87040184770BD580A002023
:101EA0007869000010B1012804D07047034B1B6C07
:101EB0005B0701D1FFF7DCBF704700BF580A002065
:101EC00008B54FF02003EFF3118183F31288BFF3BD
:101ED0006F8F124A136843F002001060DA0708D4CB
:101EE00081F31188BFF36F8F0120BDE8084004F033
:101EF00003BA4FF08043D3F80C24D3F80C34D30743
:101F0000EED5074803F09DFD81F31188BFF36F8F75
:101F10000020BDE80840FFF7ABBF00BFA80A0020C3
:101F2000980A00201FB500220123CDE90223094AA7
:101F3000CDF800D06B46CDF804D003F0F1FD0028B9
:101F400005DB4FF480420023684602F04FFC05B0E9
:101F50005DF804FB4D5B0000094BBFF35B8F53E85A
:101F6000002F22F0020143E800100028F7D1BFF350
:101F70005B8FD30702D4012004F0FAB9704700BF89
:101F8000A80A00202DE9F0413849BFF35B8F0746CE
:101F9000012251E8003F41E800200028F9D1BFF3B9
:101FA0005B8F33B9324933484B60CB608A6003F0B2
:101FB00027FC7B1E012B2BD8012F07D14FF080432C
:101FC000D3F81C3403F00303012B21D004F044FBAD
:101FD0000546F8B9284B1B78E3B14FF08043022245
:101FE000C3F808230646DFF894804FF08044D4F805
:101FF0001834D4F81824D20316D503F00303012BA8
:1020000001D0012F10D15DB386F31188BFF36F8F1C
:10201000BDE8F0814FF02003EFF3118683F31288BF
:10202000BFF36F8F0125DEE7ADB13046FFF7F0FA61
:10203000D4F81835002BDAD1D4F80421002AD6D0F0
:10204000C4F80431D4F804310123C4F81835C8F8B1
:102050008031A360CBE70021212002F0BBFEE7E73F
:102060004FF080430222C3F80423D1E7540A002032
:10207000440A0020740A0020F611002000E100E06C
:1020800008B5084B0848186004F079FA38B10748D9
:10209000FFF732FE0548FEF79FFB002008BD6FF0FA
:1020A0001200FBE7AC0A0020D8690000B120000054
:1020B0000A2838B5074D044604D1286883680D21E5
:1020C000DB69984728688368E1B2DB699847204656
:1020D00038BD00BFAC0A002030B54068057B01F078
:1020E0001F04B2F5001F85B044EA451404D1204610
:1020F00001F090FC00204AE00025B2F5800FCDE908
:10210000025514D1B3F1007F0CBF042305238DF8D1
:1021100008300023194602AA204601F0BBFA204BE2
:1021200098423AD10121204601F02CFCE2E7B3F1BC
:10213000C06F2ED0B3F1007F14BF012302238DF8AE
:1021400008308368CB40D907E3D4B2F1A07FE0D157
:102150006209012A04F01F03124A03F5E07318BF55
:102160004FF0A04252F82330DB07D2D40DF107051F
:102170002946204601F0B2FB0B4B98420BD1284672
:1021800001F0FAFB064B984205D06FF00B0005B04A
:1021900030BD0323D3E70395BBE76FF00400F6E7F8
:1021A0000000AD0B000300500400AD0B10B501F0B2
:1021B000D3FB044668B901F0A7FB084B98420AD14B
:1021C0000748214601F084FB224605210620FFF73F
:1021D00045FA002010BD6FF00400FBE70000AD0BD6
:1021E000E5210000420970B5034602D0012A17D04C
:1021F00070BD0D4E326951680029F9D003F01F03FC
:1022000001250C689D400029F2D08A682A4002D03E
:102210004B68304698472CB1236821461C46F2E7AC
:10222000024EE7E72346F8E7A8690000906900003E
:102230002DE9F04347683B7B01F01F0585B00E4652
:1022400045EA43151446D2B902A9284601F046FBD7
:102250000446284601F006FC464B984204D06FF035
:10226000040005B0BDE8F083844201D00020F8E707
:102270009DF8080001F07AFBA042F7D0EFE74FF09D
:1022800000090DF103013046CDE9029901F026FB6A
:102290004B46804602AA4946284601F0FBF9354BD9
:1022A000984202D06FF01500DBE7804503D19DF81E
:1022B000030001F05BFBA3034CD540F2066323400F
:1022C00040F20622934219D00CD8062B17D004D81E
:1022D000ABB1022BE6D1042311E0B3F5007FE1D1CD
:1022E00001230CE040F20242934227D0B3F5C06FC5
:1022F00026D0B3F5806FD5D1022300E007238DF8F7
:10230000043084F48033C3F30043E0068DF80530D5
:1023100054BFC4F34013032321038DF8063011D5B5
:102320007A680123B340C2F80835002201A9284683
:1023300001F05EFA0F4B984298D0B3E70523DEE731
:102340000323DCE7620341BF01237A68B340C2F88C
:102350000C35EAE7E3064FF0000354BFC4F3401422
:1023600003241A4601A928468DF8044001F092F989
:10237000E0E700BF0000AD0B08B54368D3E90201F8
:1023800001F0DEFE034B984214BF6FF00F000020F7
:1023900008BD00BF0000AD0B37B504460022012187
:1023A0000320FFF75BF963689D6901AA00212846B5
:1023B00003F0C7FE002814DB019B2A68197918680E
:1023C00003F0DCFE00280CDB60682369064A00F19C
:1023D000080101F043FD054B984214BF6FF00F0058
:1023E000002003B030BD00BFF12300000000AD0BA2
:1023F0000378012B08D0022B08D04BB9054B0B6298
:1024000001F1100002F0D2B9034BF8E7034BF6E7F5
:10241000034BF4E70000AD0B0100AE0B0200AE0B66
:102420000100AD0B2DE9F04F0C4689B017469946D7
:10243000456806694FF0FF324FF0FF33304602F037
:10244000D5F906F1100A00220023504602F0CEF919
:10245000284601F061FDDFF8C0B04FF00008B84534
:1024600001D300242CE0237A019313F008014CD10E
:1024700012220DF10E00009103F0BCFA019B60687E
:10248000049003F00102206800998DF80C2013F0ED
:10249000020F8DF80D9006901CD17B1E434502D98A
:1024A000237D5B0718D582BB202203A9284601F0B3
:1024B0005FFD584512D0194B984229D06FF00404A3
:1024C000284601F039FD304602F070F9204609B087
:1024D000BDE8F08F0A46E8E74022E6E74FF4804285
:1024E0000023504602F082F938B1284601F024FD5D
:1024F000D5E9020101F024FEE0E7336A5B4504F10F
:102500000C04DBD108F10108A9E76FF08504D7E7D7
:102510006FF00F04D4E700BF0000AD0B0B00AD0B54
:102520002DE9F3411C46436807690E4605461968C4
:102530004FF02003EFF3118883F31288BFF36F8FFE
:10254000F868C36843B188F31188BFF36F8F6FF0E9
:102550000F0002B0BDE8F0814FF4800CC2608660CD
:10256000C1F804C306F06041B1F1005F10D1C0E9C9
:1025700004623946284603F0BEFC88F31188BFF395
:102580006F8FFB7A012B01D1631C05D10020E0E79E
:10259000036203F065FCECE70B480C4AFD6824EA93
:1025A000E4744FF4004600210023C4FB0601FDF74C
:1025B000A7FD283502460B4600200021CDE9000189
:1025C000284602F017FEE1E73F420F0040420F00AD
:1025D000F0B54B79012B26D0032B21D110268B7916
:1025E000032B1DD1CC790CB1012C19D10A7912B170
:1025F000022A15D10E220B684568B3F5164F2D68D7
:1026000065D02DD8B3F5165F64D016D8B3F5966FA4
:1026100062D00AD8B3F5967F61D0B3F5167F61D04A
:102620006FF0850052E00026D9E7B3F5166F5CD055
:10263000B3F5965FF4D1374B3CE0B3F5E14F57D09B
:1026400007D8B3F5615F55D0B3F5964FE8D1324B5B
:1026500030E047F61227BB42E2D14FF4000329E0F5
:10266000B3F5613F48D013D8B3F5963F47D009D8AA
:102670004DF6C027BB4244D0B3F5614FD0D14FF4E3
:102680006B0317E0B3F5E13FCAD14FF0EB7311E0F4
:10269000B3F5612F38D008D8204FBB4237D0B3F5FF
:1026A000E12FBDD14FF0E86304E01D4FBB42B7D12D
:1026B0004FF080530069C5F82435031D03C9344326
:1026C0002243C5F86C2583E803000020F0BD4FF4D9
:1026D0001D03EFE7134BEDE74FF49E23EAE74FF4BA
:1026E000A033E7E74FF41C33E4E74FF41D23E1E7A1
:1026F0000D4BDFE70D4BDDE74FF06C73DAE70C4B6A
:10270000D8E74FF46503D5E74FF07063D2E74FF099
:102710008063CFE700B0130000A04E0090D003000C
:1027200040420F000050270000C0750000F03A0042
:1027300000903A012DE9F743D0F804900669D9F8E2
:102740000040D9F80C800021C4F80015074630601D
:1027500001AA404603F0F5FC051EC0F28780019BEC
:10276000D8F800201979186803F008FD051E7DDBF4
:10277000311D3846FFF72CFF0546002876D1D9F8E1
:10278000043099071AD506F1160001F06DFA454B91
:10279000984240F08380B07DC30003F1804303F58D
:1027A000F83304F10C0204F59071C3F81015C3F866
:1027B00014253D4A01238340C2F80435F368002BF9
:1027C00058D07B68D7F810801B68D8F80C003749C0
:1027D0000422C3F804230122C0F8C820C3F804135C
:1027E0000821C3F80015D3F84C11A1B15A60D3F8F1
:1027F00044211AB9D3F82421002AF8D00022C3F8C2
:102800004C21D3F84C11C3F81021D3F81011C3F8A0
:102810004421D3F8443126490022883004F047F897
:10282000D8F80C30D8F80C00C3F8BC80214900223D
:10283000283004F03CF8D8F80C30C3F85C80D9F8A4
:1028400004309A075CBF4FF48072C4F80423DB069F
:1028500044BF4FF48003C4F8043314360023C4F893
:102860004465C4F848350123A360E360284603B0FB
:10287000BDE8F0830823C4F8003599F80830002B30
:10288000DDD1C4F81031D4F8103106F11503C4F8C5
:1028900034350123C4F838352360D0E76FF00405E0
:1028A000E4E700BF0000AD0B00F0014010020A0099
:1028B0007560000039610000F8B5066905460F46ED
:1028C00003F0CAFEB0B9284B1B789BB1642468683A
:1028D00003F001FB002834D1012003F0FEFC013C91
:1028E000F5D10021212002F075FAEFE784F3118879
:1028F000BFF36F8F4FF02003EFF3118483F312883F
:10290000BFF36F8F6968084603F0E5FA0028EDD041
:10291000F36853B1DA6842B1D3F8C420002A04DA6C
:102920000A68D2F84C25C3F8C4203146012201F8C8
:10293000147F284603F086F984F31188BFF36F8F64
:10294000F8BD4FF02003EFF3118483F31288BFF337
:102950006F8F686803F0BFFA0028E6D184F311880E
:10296000BFF36F8FBDE700BFF611002043682DE96C
:10297000F0411D680369D5F8081188B0044669B1B3
:102980000022C5F80821D5F80821DA68D2F8C0304D
:102990000133C2F8C03008B0BDE8F081D5F8243169
:1029A00013B3C5F82411D5F82431D5F88064C5F8DF
:1029B0008064142203A803F01DF806238DF80C3060
:1029C000F30700F10281B70700F10181700700F100
:1029D000008106F00806204603A98DF8106003F078
:1029E00057F9204603F0E7F9D5F810317BB3D5F855
:1029F0000433D9062BD54FF000082769C5F810819C
:102A0000D5F810316368F8681E68012380F8D53066
:102A1000883003F058FFFA68D6F83C1592F8D130A8
:102A2000906E82F8D1801B1A0B44906F23EAE371F9
:102A300008444345906702DD204603F030F9F96809
:102A400091F8D230002B40F0C68081F8D530D5F80F
:102A50004C318BB3D5F8106176BB14222769C5F8C9
:102A60004C61314603A8D5F84C3102F0C3FF032373
:102A700003A920468DF80C3003F00AF9FF68FB6FBC
:102A80005A1C19D0D7F880008B49C7F8843020EA47
:102A9000E07C8E464FF400403146CCFB00E1874A93
:102AA00000237046FDF72CFB02460B46CDE90001E2
:102AB00007F1880002F09EFBD5F8443133B3D5F816
:102AC00010611EBB2769C5F84461F968D5F8443127
:102AD000D4F804806031204603F0FAF8F968204603
:102AE0006C3103F0F5F8FB6893F8D220002A00F06F
:102AF0009F8083F8D260D8F80430D80603D502212D
:102B0000204603F0C1F9204603F0FAF8D5F8203149
:102B1000DBB1D5F80433D90517D563681B684FF0CE
:102B20002001EFF3118281F31288BFF36F8FD3F886
:102B3000201131B10021C3F82011D3F82011012157
:102B4000D96082F31188BFF36F8FD5F85831002B0D
:102B50003FF421AFD5F804335A027FF51CAF636808
:102B60002569D3E90073DB0667D4EB689B68002B0B
:102B70003FF411AF4FF02003EFF3118283F312887B
:102B8000BFF36F8FEB68D3F8C4100029ACBFD3F844
:102B9000C460D7F84C6582F31188BFF36F8FE86883
:102BA00090F8D430002B55D04FF02003EFF311866E
:102BB00083F31288BFF36F8F2946204603F09BF9F9
:102BC00086F31188BFF36F8FE5E6012603E702263F
:102BD00001E70426FFE66031204603F079F84FF064
:102BE0002003EFF3118183F31288BFF36F8FFB682B
:102BF000DA6ED2B11A661A6F5A660022C3E91B2236
:102C00009A66D6F84C310BB901233360D6F80032FE
:102C100023F02003C6F8003281F31188BFF36F8FD1
:102C2000FB68002283F8D52011E701237360F3E7E6
:102C30006068114603F0E0F85DE74FF48003C7F8E1
:102C400008330121204603F01FF9EB68DB68002BF5
:102C50008BD1A0E6826803699A420BD04269036A6D
:102C6000B242334425D1036203F0FAF800289BD125
:102C7000EB681E6AE868283003F025FE1422002164
:102C800003A802F0B7FEEB689A68CDE90426DA687B
:102C900096421CBF01228DF80C204FF48002C7F829
:102CA000082300229A60DA6003A9204602F0F0FFB0
:102CB00071E61E46DEE700BF3F420F0040420F00B4
:102CC00070B5012383400E4ABFF35B8FDC4352E8AB
:102CD000001F01EA040542E80056002EF7D1BFF3B9
:102CE0005B8F4FF4803282400648C0F80823BFF360
:102CF0005F8FBFF36F8F0B4214BF0120002070BDA8
:102D0000CC0A0020001001401B49F8B5044622F00F
:102D10007F450868C1E90023A5F50013101AB3F533
:102D2000400F0FD302F0ACF9A30003F1804303F589
:102D30008833D3F8402595421DD14FF40002C3F8E3
:102D4000402512E00D4B1B681A0A1B065E190C4B3E
:102D500042F10007C3E9006702F092F9094A04F55D
:102D6000A87352F823309D4205D1064A4FF48033B0
:102D7000A340C2F84433F8BDC0030020D00A0020AD
:102D8000C80300200010014011B3BFF35B8F012383
:102D9000104A834052E800CF4CEA030C42E800C1DD
:102DA0000029F7D1BFF35B8F0B4A4FF48033834088
:102DB000C2F80433094BBFF35B8F1B68BFF35B8F13
:102DC000C340DB0742BF064B4FF40032C3F800217B
:102DD000704700BFCC0A002000100140C80A002044
:102DE00000E100E00D4B1868010A0006BFF35F8F99
:102DF0000B4BD3F80435181841F10001B3F5801FCF
:102E00000AD2084BD3E90023904271EB030303D2AB
:102E100010F1807041F10001704700BFD00A00201E
:102E200000100140C80300202DE9F74F14461D464D
:102E30000746FFF745FF0090FFF7D4FFA04271EB74
:102E400005037AD2464B201A65EB0101984271F1D5
:102E5000000180F08180434B03EB0713D3E9022389
:102E60009D4208BF944253D04FEA870A0AF1804A34
:102E700007F150090AF5883A4FEA89091FFA89F9DA
:102E800024F07F4809F180494FF48033DAF8400597
:102E9000354A09F58839BB404646D2F804B5A0EB5F
:102EA0000B0020F07F402BF07F410128CAF840152D
:102EB00005D10193132003F0F6FC2B4A019B0BF183
:102EC000020CA6EB0C0020F07F40B0F5000F88BF8D
:102ED00066460020C9F80000D9F80000C2F8443363
:102EE00026F07F40CAF84005D2F80405834506D095
:102EF000301A023820F07F40B0F5000F1BD8A6EB47
:102F0000080626F07F46361945F1000334461D4673
:102F100014490C983B0101EB0712C8500D9B5360FC
:102F2000C2E90245002438460099FFF72DFF2046EC
:102F300003B0BDE8F08F3046AFE701230B4ABFF383
:102F40005B8FBB4052E8000F184342E800010029A4
:102F5000F8D1BFF35B8FDBE76FF01504E3E700BF49
:102F600001000001B003002000100140C80A002049
:102F700073B5194B194D00244FF0FF304FF0FF315E
:102F8000C5F80845C3E902014FF48033C5F804339E
:102F9000134B02264FF400320121C5F804631120BF
:102FA000C3F880212246FEF759FB1120FEF73AFBB9
:102FB0000C4A0123AB602B6013600B4B0B4A009350
:102FC000019400232046FFF72FFF3046FEF7DAFF7B
:102FD000204602B070BD00BFB003002000100140C9
:102FE00000E100E0CC0A0020092D0000FFFF7F0077
:102FF0002DE9F743334CD4F804339A070BD5D4F8B2
:10300000043143B1304A0023C4F80431D4F8043108
:103010001368013313604FF02003EFF3118283F341
:103020001288BFF36F8FD4F80433DB0329D5BFF3C5
:103030005B8F264B53E8001F21F0010043E8000599
:10304000002DF7D1BFF35B8F11B9D4F84031C3B174
:103050000025C4F84051D4F8403182F31188BFF301
:103060006F8FFFF7BFFE4FF02003EFF3118283F362
:103070001288BFF36F8F164BD3E90267B042B94194
:1030800006D282F31188BFF36F8F03B0BDE8F083DF
:103090004FF0FF384FF0FF39D3E90010C3E9028940
:1030A0001D604FF48033C4F8483382F31188BFF3B6
:1030B0006F8F0029E9D0009032463B46284688476A
:1030C000E3E700BF00100140D00A0020C80A00203A
:1030D000B0030020431C13B521D0012821DDB0F539
:1030E000000F20DA441EFFF77DFE104BD3E90013DA
:1030F000421AB2F5000F0E4828BF002401322244C4
:10310000824228BF024652184FF000000949019040
:10311000009143F10003FFF787FE02B010BD0448A1
:10312000E0E70024DFE7024CDDE700BFC00300203A
:10313000FFFF7F00092D000008B5FFF753FE024B8B
:103140001B68C01A08BD00BFC003002000F01F01AB
:1031500040090128044B4FF0010218BF4FF0A04373
:103160008A40C3F80C2570470003005000F48053D8
:10317000002B30B516BF002114460124C0F3811581
:1031800000F01F0210F0200F00F4706040EA85008C
:10319000064B40EA010008BF4FF0A04302F5E07281
:1031A00040EA440043F8220030BD00BF0003005055
:1031B00000F01F0140090128044B4FF0010218BF25
:1031C0004FF0A0438A40C3F8082570470003005021
:1031D0004FF08053D3F83021082A06D1D3F8343188
:1031E000052B02D8024AD05C70470020704700BF10
:1031F000BE710000024AD2F80034002BFBD07047A9
:1032000000E001404FF0805310B5D3F83021082A78
:103210004ED14FF080420021C2F80C11C2F81011BB
:10322000C2F8381502F54042D3F80414C2F820154C
:10323000D3F80814C2F82415D3F80C14C2F82815D2
:10324000D3F81014C2F82C15D3F81414C2F83015A2
:10325000D3F81814C2F83415D3F81C14C2F840156A
:10326000D3F82014C2F84415D3F82414C2F8481532
:10327000D3F82814C2F84C15D3F82C14C2F8501502
:10328000D3F83014C2F85415D3F83414C2F86015CA
:10329000D3F83814C2F86415D3F83C14C2F8681592
:1032A000D3F84014C2F86C15D3F84434C2F8703522
:1032B000FFF78EFF18B13B4B3B4AC3F88C26FFF754
:1032C00087FF18B1394BFB22C3F81825FFF780FFA1
:1032D00070B14FF080414FF08053D1F8E42ED3F815
:1032E000583222F00F0203F00F031343C1F8E43EFB
:1032F000FFF76EFF20B12E4B4FF40072C3F840264B
:103300004FF08053D3F83031082B1AD14FF080435F
:10331000D3F80024D20744BF6FF00102C3F80024A1
:103320004FF08053D3F83431052B02D8214AD35CB7
:103330003BB14FF01023D3F808224FF08043C3F87D
:1033400058254FF01023D3F80022002A03DBD3F8CE
:103350000432002B22DA184901234FF01020C1F863
:1033600004351224FFF746FFC0F80042FFF742FF82
:10337000C0F80442FFF73EFF0023C1F80435FFF711
:1033800039FFBFF34F8F0D490D4BCA6802F4E0625D
:103390001343CB60BFF34F8F00BFFDE7094B0A4AD1
:1033A0001A6010BD005000404881030000F000404A
:1033B00000900240B871000000E0014000ED00E024
:1033C0000400FA05940000200090D00370B5012598
:1033D0000268BFF35B8FB2FA82F3C3F11F03DBB263
:1033E00005FA03F422EA040450E8006F964204D17F
:1033F00040E8004CBCF1000FF6D1BFF35B8FE7D182
:1034000001480B7070BD00BF0000AD0B0368CB40DE
:10341000DB0710B514D401238B400268BFF35B8F28
:1034200043EA020150E8004F944204D140E8001CF6
:10343000BCF1000FF6D1BFF35B8FEED1014810BD98
:103440000148FCE70000AD0B0400AD0BF7B50446E6
:1034500018B1012822D003B0F0BD4FF08043022202
:10346000C3F80823C3F80401D3F804210122DA6069
:10347000074601238DF8073042F210754FF0804661
:10348000CCB1012CE7D1C7B3D6F80C3403F001035B
:103490003B70D6F80C34DA0321D516E04FF08043A8
:1034A0000022C3F80803C3F80021D3F800215860B4
:1034B0000DF10707DDE7B7B1D6F8183403F00303C1
:1034C0003B60D6F81834D803C5D59DF8070001280D
:1034D00003D102F002FF013DD2D1012CBBD10C4B34
:1034E00000225A71B7E7D6F81834D903B3D50120B2
:1034F00002F0F3FE013DF6D1ADE7D6F80C34DB0364
:10350000EDD5012002F0E9FE013DF6D1E7E700BF6D
:10351000D40A0020044B1A7922B9012218609A803B
:103520000248704702487047D40A00200000AD0BE3
:103530000C00AD0B4FF0804310B5D3F800216AB1F9
:103540000022C3F80021D3F800210122C3F8082388
:10355000114B587910B95A711B6898474FF0804346
:10356000D3F8042172B10022C3F80421D3F8042156
:10357000D3F81824D3F81814920704D10122C3F801
:1035800018259A6010BD0222C3F80823024BBDE83B
:1035900010401B6801201847D40A0020036803F07C
:1035A0001F025B09012B0260024818BF4FF0A040C8
:1035B000704700BF00030050034B083033F8100081
:1035C000C0F34010704700BF9800002070B500F1B4
:1035D00008030C4C34F81330DA0505460E4607D5BF
:1035E000C3F3432304EBC30254F8333052689847C3
:1035F000A3682BB1E26831462846BDE87040184701
:1036000070BD00BF98000020124A083010B432F894
:103610001030D9051BD5C3F3432123F4F85322F806
:10362000103002F10E04002034F8023F13F4807FC2
:1036300003D0C3F34323994209D001303028F3D19A
:10364000002342F83130044810BCFFF7DFBE10BC45
:10365000704700BF980000200C01002038B50246DA
:10366000FFF7AAFF094C02F1080540B134F8153004
:1036700007495B0B03F5A273002041F823001046B5
:10368000FFF7C2FF002324F8153038BD9800002052
:10369000006000402DE9F043044685B090461D4689
:1036A000F1B14E4F00F1080937F81960B30702D5A0
:1036B000FFF782FF18BB002326F00206CDE9003396
:1036C0008DF80E308DF80F300DF10F020B462046AD
:1036D0000DF10E0146F0010602F04CFE27F81960CC
:1036E000B8F1000F26D03D4B98F80070D8F80420B0
:1036F00004F1080633F81610880702D592B138484D
:103700001AE021F02001C904C90C23F816104AB1AF
:10371000032FF4D892F800C08FB9324A0CF5A27C7E
:1037200042F82C7033F8162022F01C0242EA87027D
:1037300023F816204DBB2C4805B0BDE8F0834FEAB6
:103740008C0202F1804202F5C04241EA4C31D2F8CB
:10375000100520F00300C2F81005D2F8100520F47F
:103760004F3020F44070C2F810052002D2F810E566
:1037700000F47C5040EA074040EA0E0041F020018E
:1037800023F81610C2F81005CCE7D5E900672046EB
:10379000FFF73AFF002ECED0104DD5E90023964218
:1037A00001D19F4218D011480DF10F01FFF70EFE15
:1037B0000D4B9842C0D19DF80F2045F8326005EBC3
:1037C000C20308345F6035F8143043EA422343F4FF
:1037D000807325F81430AEE70022EEE79800002051
:1037E0000400AD0B006000400000AD0B0C01002098
:1037F0002DE9FF410446154609B3324F00F1080890
:1038000037F81860B20703D4FFF7D6FE002857D167
:1038100016F01C0F02D04B78012B51D001238DF8EC
:103820000F300023CDE900134A1C8B1C20460DF1FC
:103830000F0146F0030602F09DFD27F818601DB940
:10384000214804B0BDE8F0811E4E04F1080736F8A7
:103850001700830734D595F800C06146890020F031
:10386000200001F18041C00401F5C041C00C26F8E0
:1038700017000023C1F810356A78002AE0D0D1F88B
:103880001035AD7823F4991323F4F853C1F81035AB
:10389000D1F810E5230203F47C53120402F4403201
:1038A00043EA0E0313432A0502F4801240EA4C3027
:1038B000134340F0200026F81700C1F81035BFE789
:1038C0000248BEE7980000200000AD0B0400AD0BDD
:1038D000014BC3E9020170479800002008B5024679
:1038E000FFF76AFE38B1054B0548083233F812304D
:1038F0005B0B0B7008BD0348FCE700BF980000207D
:103900000000AD0B0400AD0B38B50F4C94F87850A7
:10391000BDB96022294604F1100002F06BF80620C0
:10392000FDF780FE094B0A48C3F87C51D3F87C218F
:103930004FF00042C3F80423012384F87830636712
:1039400038BD0448FCE700BF98000020006000403C
:103950000000AD0B0500AD0B034B93F87800003869
:1039600018BF0120704700BF9800002001460148A1
:10397000FFF74CBD0801002001460148FFF726BDB6
:103980000801002037B50446FFF716FE04F10802CF
:103990001E4B33F81230E8B113F002051AD15B0B5D
:1039A0009A0002F1804000F5C24002F1804202F527
:1039B000C04205600068D2F8100540F00100C2F86E
:1039C000100529B1012202FA03F3114AC2F80433A7
:1039D00003B030BDC3F38203042B12D0052B12D0E9
:1039E00001A80194FFF7DAFD019BD0F81015D9402A
:1039F00001F001010231204603B0BDE8304002F081
:103A000002BD0321F7E70221F5E700BF980000207F
:103A10000060004008B50246FFF7CEFDC0B102F1DC
:103A200008010E4B33F81130990711D45B0B0122BA
:103A30009A409B000A4903F1804303F5C043C1F853
:103A40000823D3F8102522F00302C3F8102508BD7F
:103A5000BDE808400021104602F0D5BC98000020C7
:103A6000006000400E4B00F1080213B533F812302D
:103A7000DB07044611D5FFF7CDFF2046FFF7EEFD2B
:103A800001A80194FFF78AFD019B03F5E073022270
:103A900040F82320034802B010BD0348FBE700BFF5
:103AA000980000200000AD0B0400AD0B2DE9F04F95
:103AB000684B69486949002687B0012234461D6871
:103AC00035B1D0F8045315421EBF1C601D68164363
:103AD00004338B424FEA4202F1D1DFF87C91D9F8EE
:103AE0007C31002B00F099804FF0A043D3F82025C3
:103AF0000492C3F82025D3F820280592C3F8202883
:103B00004FF000080DF1100A4FEA481300934FF0F0
:103B1000010B49E0009B524A94FAA4F4B4FA84F4ED
:103B20001C44E00804F10803039432F813701AF8F7
:103B3000003004F007020BFA02F223EA02030AF84B
:103B4000003003A8FFF72AFD039B03F5E073B908D3
:103B500050F82330C7F382054A072F46C3F30143C9
:103B60002CD520463946DDB2FFF730FD03A803947B
:103B7000FFF714FD039B03F5E07350F82330C3F304
:103B800001439D4207D10021204602F03CFC29461A
:103B9000204602F038FC03A80394FFF7FFFC039BC8
:103BA0000BFA03F3C0F820355AF82840002CB1D1A5
:103BB000B8F1000F1DD14FF00108A5E7022B0CD181
:103BC0000321204602F01FFC05F00503012BE2D182
:103BD00039462046FFF7FAFCDDE702212046019333
:103BE00002F011FC032DF3D0019B032BD3D1022D46
:103BF000EDE74FF0A042C9F87C41D9F87C31194972
:103C0000D2F820350493C2F82035D1F8202505924A
:103C10001343C1F820257FF473AF012416B907B010
:103C2000BDE8F08F96FAA6F3B3FA83F304FA03F231
:103C30009B0003F1804303F5C04326EA0206D3F854
:103C40001005D3F81015C0F30520C1F30141FFF7AB
:103C5000BDFCE3E7006100400060004020610040DF
:103C6000980000200003005001460148FFF7AEBB5A
:103C70001401002013B53B4B01930023C0F804311D
:103C8000D0F80421C0F82431D0F82421C0F81C3128
:103C9000D0F81C21C0F80831D0F80821C0F8003253
:103CA0004B6381F82F300123036291F82D209A4253
:103CB00018BF83604B6B8A6A934204460ED24A6AED
:103CC000D35CC0F81C350B6803B340F286238B60CD
:103CD0008B682548C4F8043302B010BD91F82C302D
:103CE00013B10123C361EEE70B6A13F0400F4FF0ED
:103CF000010316BFC361436181F82D30E3E720461D
:103D000002F090FB28B1019B013B0193019B002B2A
:103D1000F5DC91F82F305BB91348019B002BDBDCFD
:103D20000023C4F8003505231048C4F80035D3E754
:103D3000D4F8C434C4F8C4348BB10D4A0B4813F022
:103D4000010F18BF104613F0020F02F1010218BF55
:103D5000104613F0040F074B18BF1846DDE7034861
:103D6000DBE700BFA08601000000AD0B0100AD0B3A
:103D70000000AE0B0200AE0B13B5334B01930023D2
:103D8000C0F80431D0F80421C0F82431D0F824213F
:103D9000C0F81C31D0F81C21C0F80831D0F8082137
:103DA0004B6381F82F308B6A012B044617D10B6AC5
:103DB0005B0614D40223C4F800320123236291F875
:103DC0002D20022A18BF23600B688BB140F2862396
:103DD0008B608B681D48C4F8043302B010BD01230A
:103DE000E9E7204602F01EFB28B1019B013B01934D
:103DF000019B002BF5DC91F82F305BB91348019B38
:103E0000002BEADC0023C4F8003505231048C4F871
:103E10000035E2E7D4F8C434C4F8C4348BB10D4A99
:103E20000B4813F0010F18BF104613F0020F02F1F8
:103E3000010218BF104613F0040F074B18BF1846B5
:103E4000DDE70348DBE700BFA08601000000AD0B03
:103E50000100AD0B0000AE0B0200AE0BF8B5077908
:103E6000294D4FF03C0C0CFB07FC05EB0C0494F8BF
:103E70002E60002E46D1006863604B7B84F838309A
:103E80008B7BA66045F80C2084F82D6084F83160A7
:103E900084F8306084F83930E3B90C681B4B04F0C7
:103EA0001F066409012C08BF9E4606F5E07418BF82
:103EB0004FF0A04E40F20C6C4EF824C04C6804F059
:103EC0001F066409012C18BF4FF0A04306F5E074EB
:103ED00043F824C0CB7B2BB9D1E90043C0F8084597
:103EE000C0F80C358B68C0F824351AB140F30730A0
:103EF000FDF798FB3C2303FB07550548012385F894
:103F00002E30F8BD0348FCE7DC0A00200003005017
:103F10000000AD0B0500AD0B036802790521C3F865
:103F20000015044B3C2101FB0233022283F82E20B2
:103F3000704700BFDC0A002003680B4A0179C3F810
:103F40000823D3F8002222F00302C3F80022002243
:103F5000C3F80025054B3C2000FB0133012183F809
:103F60002E1083F83020704786420400DC0A0020BF
:103F70002DE9F047314F0479D0F800903C2303FB42
:103F800004730D4693F82D30012B944604D10B7821
:103F9000012B06D12A4811E0022B02D10B78012B0C
:103FA000F8D13C26274BC9F8083306FB047696F86F
:103FB00030302BB1B3682448C9F80433BDE8F0872A
:103FC0008CF00403C3F3800386F83030C6F820C0B9
:103FD000A846B8E80F0006F10C0EAEE80F00D8F8BE
:103FE0000030CEF800306B68B362EB6873626B78B8
:103FF000C9F888352B78C4EB041A012B07EB8A0A21
:1040000017D09BB9CCF3401C3C2303FB04735146EF
:1040100083F82CC04846FFF72DFE3C235C433A1939
:104020003B59002BCAD182F83030C7E74FF0010C62
:10403000EAE751464846FFF79FFEEEE7DC0A00201C
:104040000500AD0B864204000B00AD0BF0B5324C01
:10405000324887B0214602F0E5F9002859D194F89A
:104060002F70FFB9227B931E012B1BD8606AA369B6
:10407000984217D1E36963626369A362236A2748A0
:1040800084F82D70C3F34013032A84F82C3004D134
:1040900007B0BDE8F040FFF7EDBD07B0BDE8F04068
:1040A000FFF76ABE1E4E0FCE01AD0FC533682B6001
:1040B00047B31A4AD2F8C434C2F8C43413F0020128
:1040C00006D001238DF80030002384F8303007E05B
:1040D00013F0040209D002238DF8003084F8301068
:1040E000D4E900316846984713E013F0010305D086
:1040F00003238DF8003084F83020F1E704228DF896
:104100000020E2E7236A8DF800705B0784F83070C6
:10411000E6D507B0F0BD00BFDC0A0020003000404B
:10412000E80A0020036803F01F025B09012B02600C
:10413000024818BF4FF0A040704700BF0003005076
:10414000F7B5064602F006FA084602F003FA01A89F
:104150000196FFF7E7FF019B03F5E0730C4640F281
:104160000D6140F8231001A80194FFF7DBFF019BCC
:1041700003F5E073092540F82310042002F0ADF8A0
:10418000012701A80194FFF7CDFF019AD0F810355F
:10419000D340DB0715D401A80196FFF7C3FF019BAD
:1041A00007FA03F3C0F80C35042002F096F8304605
:1041B00002F0D0F9013D042002F08FF815F0FF0560
:1041C000DFD101A80194FFF7ADFF019A01239340CD
:1041D000C0F80C35042002F080F8204602F0BAF94D
:1041E000042002F07AF801A80194FFF79BFF019ADE
:1041F000D0F810350348D34003F00103C01A03B0D0
:10420000F0BD00BF0100AD0B10B5144C144A1549A8
:10421000032323616361144BA261E3614FF4806364
:1042200023620023A3626362E36222660F4A62662E
:104230001022A266E01D2367E366636701F0B5FB09
:10424000BFF35F8F0A49204601F0AFFBBFF35F8FDA
:104250002023A371BFF35F8F10BD00BF180B002098
:10426000C4710000CD710000F60D0020E60D0020A5
:10427000D17100000E4B70B553F82040013053F857
:104280002060A64200D870BDD4E900352846984782
:1042900065B1EB6830B10028B8BF4042FF28A8BF25
:1042A000FF2018705A7842F001025A700834E8E78B
:1042B000B46D000008B50A4B012202201A70FFF706
:1042C000D9FF00F0E3FF0320FFF7D4FF00F03CF933
:1042D000FCF774F9034A137B23F00103137308BD41
:1042E000F61100205004002008B50348034A0021BD
:1042F000121A02F069F908BD00020020F81100202E
:1043000070B5002386B00122CDE90423134E144D6D
:1043100001930F22CDE902321249182303FB005505
:1043200006EBC01604464FF4B07000FB04110E4BB0
:1043300000954FF4A072304600F0D4F8737B0B4A1E
:10434000EE6023F0040373734FF4026304FB033342
:1043500013442C756B6006B070BD00BFD003002005
:10436000C00B0020201A002001460000001200208F
:1043700080B52D4BA6B083F308882C4D2C4E6B696D
:104380002C4F43F4007300246B61E02385F8223046
:10439000EC772C766C76AC7685F820406B6A43F42B
:1043A000E0236B6285F82340FDF73CFBFDF71CF929
:1043B0004FF0FF33AB62EB62FDF76EFCFDF7D4FB11
:1043C00040F20113ADF8243006ABB360CDE91F44D1
:1043D000229402F0D3F82046FFF74CFF0120164D3F
:1043E000FFF748FF00F068FC144BF56105930123CB
:1043F00013490094CDE903434FF480623B46CDE975
:104400000144284600F06EF86A7B064622F004025A
:1044100028466A7302F098F92046FFF771FF3A4682
:1044200031462846FDF7D8F9201A002000ED00E0BB
:10443000C00B0020B542000050040020D8710000DD
:10444000801B002070B50E4B0E4CA34201D3002000
:1044500070BDD3E9030141EA000212F003020BD15F
:104460009D685A61AA4201D11C33EEE75E690E6075
:10447000013259610144F5E76FF01500E8E700BF2C
:10448000AC010020AC01002073B50C464FF02005B4
:10449000EFF3118185F31288BFF36F8F45695DB12A
:1044A00025602B684361836901338361002081F3B8
:1044B0001188BFF36F8F11E052EA030603D1256024
:1044C0006FF00B00F3E7CDE900230246083000F05F
:1044D00007FB18B9024B9B685B69236002B070BD93
:1044E000C00B00202DE9FF410E9E06730426467383
:1044F0000D9E867300F158050F46D61DC0E916556E
:104500000C9A002526F007062037C0E90655C0E9B9
:1045100019768560C573C56606F1200802920B9A6C
:10452000019288440A9A009242460446FDF722F915
:10453000044B65659B6803B11B6F2367404604B05D
:10454000BDE8F081C00B00202DE9F043294C2A4D35
:1045500087B02646AE4204F130040FD300F07CFB56
:10456000244CDFF898904FF4004640F2E737AC4215
:1045700020D307B0BDE8F04300F082BB54F8043C00
:10458000059354F8103C049354F8143C039354F8E6
:10459000183C029354F81C3C019354F8203C0093BF
:1045A00054E90A2354E90C01FFF79CFF54F8303C0E
:1045B0005E65CEE7636A5A1C0DD023EAE3730021DF
:1045C0003846C3FB060151EAC333D4F8008004D156
:1045D000404600F0F1FA3034C9E74FF47A72002314
:1045E000FBF78EFD02460B4608F11800494600F025
:1045F000C9FCF0E7AC010020AC010020B56600006A
:1046000008B50B4C0B4D4FF02002EFF3118382F3F2
:104610001288BFF36F8F02F016F92B78A06113B9DF
:10462000FCF7E8FFEFE7FCF741FE0028EBD1F7E7E6
:10463000C00B0020F61100202DE9F3410446174677
:104640001E464FF02003EFF3118883F31288BFF367
:104650006F8FC368324A7BB180689168884219D0F5
:1046600057EA060318D188F31188BFF36F8F6FF0F4
:104670000F0002B0BDE8F081916891F90E10216140
:104680000133E3609368A36088F31188BFF36F8FF1
:104690000020EEE72169F2E791F90E1090F90E3053
:1046A0009942A8BF19466FF07E029142B8BF1146E9
:1046B0008B422EDD01F0DDFF0546CDE9007619487D
:1046C0002246414600F00CFA0028E1D04FF02003CA
:1046D000EFF3118683F31288BFF36F8F236821698C
:1046E0009C420AD04BB193F90E309942A8BF1946AB
:1046F0006FF07E039942B8BF1946A06801F0B9FF78
:1047000048B945B986F31188BFF36F8F6FF00A007F
:10471000AFE70025D1E70348314600F03BFAF5E763
:10472000C00B0020F711002038B583680446002B29
:1047300032D01C4A9268934231D1DA7B013ADA7363
:10474000C368012B05D9013BC36000F099FA002032
:1047500038BD4FF02003EFF3118583F31288BFF3C8
:104760006F8F0169806801F084FF204602F023F812
:10477000A06058B190F90E2022610022826701F0FA
:10478000E3FF0948294600F005FADEE7E06085F31B
:104790001188BFF36F8FD8E76FF01500D8E74FF09F
:1047A000FF30D5E7C00B0020F711002038B50446D4
:1047B0004FF02003EFF3118583F31288BFF36F8F5F
:1047C00001F0F9FF48B10022826701F0BDFF2946E0
:1047D0000548BDE8384000F0DDB9D4E902329A421C
:1047E00018BF0133A360F2E7F711002013B54FF0B3
:1047F0002004EFF3118184F31288BFF36F8F846874
:1048000044B1013C846081F31188BFF36F8F0020B5
:1048100002B010BD52EA030406D181F31188BFF340
:104820006F8F6FF00F00F3E7CDE9002302460248D7
:1048300000F056F9ECE700BFF711002038B5074D3E
:104840002C6854B1FEF778FC054B04441C612868C1
:104850000021BDE8384002F006B838BDF00B00205A
:10486000C00B002038B50D4D2B4653F8204F9C420D
:1048700000D004B9EC68AB6838B95A7BD20604D1D1
:10488000A26912B9DA897F2A05D89C4202D0204653
:10489000FFF7D4FF2346EB6138BD00BFC00B0020FB
:1048A00070B590F90D20437B002A014604DA03F02D
:1048B0007F03437301F0ECFE4B7B154A63F07F03EB
:1048C00010464B7350F8203F546A834208BF0023C0
:1048D00023B9C1E90004216051620CE091F90E5046
:1048E00093F90E60B5420ED0AE420CDD5868C1E9B6
:1048F0000030016059609068431A5842BDE870402A
:104900005841FFF7AFBF9C42E3D01B68E0E700BF10
:10491000C00B002070B490F90D30427B002B29DBD6
:10492000D30627D183692BBB134962F07F02427300
:104930000A4652F8204F944218BF23464C6A23B9C6
:10494000C0E90024206048620CE090F90E5093F911
:104950000E60B5420AD0AE4208DD5A68C0E90032A6
:104960001060586070BC0020FFF77CBFA342E7D006
:104970001B68E4E770BC7047C00B002008B590F9D5
:104980000D20437B002A014604DA03F07F034373C2
:1049900001F07EFE044B9868431A58425841BDE826
:1049A0000840FFF75FBF00BFC00B00202DE9F041BA
:1049B000064615461C464FF02003EFF3118783F39C
:1049C0001288BFF36F8F01F097FE87F31188BFF352
:1049D0006F8FB4F1FF3F08BFB5F1FF3F08D02A4603
:1049E000234606F118000349BDE8F04100F0CABAB9
:1049F000BDE8F081B5660000F8B504460D464FF0FD
:104A00002003EFF3118783F31288BFF36F8F002623
:104A10004FF4004C40F2E73031464FF47A720023F5
:104A2000E4FB0C01FBF76CFBB44202DD0228B8BFCB
:104A30000220074A074B1060074A98681E611560FC
:104A4000FFF7FCFE87F31188BFF36F8FF8BD00BF3F
:104A5000F00B0020C00B0020EC0B002038B54FF00D
:104A60002003EFF3118583F31288BFF36F8F174B89
:104A7000174A9C6811688C4207D12046FFF7DEFE7A
:104A800085F31188BFF36F8F38BD00211160114A83
:104A90001268C2B1E2897F2A15D8627BD20612D190
:104AA0000D4A94F90E10126891420CDB0B4A9442A5
:104AB00009D01A69824203DC2046FFF7F1FEDCE7E9
:104AC000121A1A61DCE70022FBE700BFC00B0020CE
:104AD000E80B0020F00B0020EC0B0020D00300209E
:104AE00010B5074B9868074B0C4618601146DDE976
:104AF0000223FFF75BFF2046BDE81040FCF7E6BD50
:104B0000C00B0020E80B0020F8B504464FF020034E
:104B1000EFF3118683F31288BFF36F8F437BDA06BE
:104B200049B219D18569BDB903F07F03437301F020
:104B3000AFFD437B164A817363F07F0343731346D3
:104B400053F8200F984218BF0546506A5DB9C4E972
:104B500000300460546211E0A173002086F31188D4
:104B6000BFF36F8FF8BD95F90E70B9420BD08F422D
:104B700009DD6B68C4E900531C606C600120FFF71D
:104B800071FE0120EAE7A842E1D02D68DEE700BF10
:104B9000C00B002049B9EFF3058030B9054BDA6945
:104BA0009B689A4201D0FCF791BD81F31188BFF355
:104BB0006F8F7047C00B002010B54FF02002EFF34D
:104BC000118482F31288BFF36F8F427B510704D4A4
:104BD00084F31188BFF36F8F10BD22F0040242737B
:104BE000FFF798FE21460248BDE81040FFF7D2BF0C
:104BF000F711002070B50446183001F00EFE4FF09A
:104C00002003EFF3118683F31288BFF36F8F94F9BB
:104C10000D20637B002A05DA03F07F0363732046CF
:104C200001F036FD0B4D637BA86843F010036373FE
:104C3000031B58425841FFF715FE86F31188BFF356
:104C40006F8FAB68A34203D1BDE8704001F0DBBDBC
:104C500070BD00BFC00B00204FF02003EFF31181A7
:104C600083F31288BFF36F8F044B9A68D37B013BA9
:104C7000D37381F31188BFF36F8F7047C00B00208F
:104C800010B54FF02003EFF3118483F31288BFF3C4
:104C90006F8F084B9A68D37B0133D3730020FFF7E3
:104CA000E1FD84F31188BFF36F8FBDE8104001F080
:104CB000AABD00BFC00B0020044B002103F120025D
:104CC000C3E908220846FFF797BE00BFC00B0020CB
:104CD000F8B54FF02003EFF3118583F31288BFF38B
:104CE0006F8F19498868437B03F07F03437301F09A
:104CF000CFFC437B0A4663F07F03437352F8203FA7
:104D00004C6A934208BF002323B9C0E90024206005
:104D100048620CE090F90E6093F90E70BE420ED01E
:104D2000B7420CDD5A68C0E90032106058600120BB
:104D3000FFF798FD2846BDE8F840FCF7C7BCA34242
:104D4000E3D01B68E0E700BFC00B002050EA01037E
:104D50002DE9F04105460E4603D1FFF7B9FF0020CB
:104D60002CE0831C71F1FF332ADB01F098FD44191C
:104D70004FF02003EFF3118883F31288BFF36F8F96
:104D8000114F124BB8681860FFF7F8FDB86810496A
:104D90002A463346183000F0F5F8BA68537B43F0E2
:104DA000100353734046FCF791FC01F078FD201A84
:104DB00063EB0303012873F10003D0DBBDE8F0814E
:104DC0006FF00104241AD3E7C00B0020E80B002089
:104DD000B5660000B1F1FF3F08BFB0F1FF3F08B575
:104DE00006D1084B9868FFF705FF4FF0FF3008BD6C
:104DF000FFF7ACFF4FF47A7380FB0303C00B40EA6C
:104E00004340F4E7C00B0020014B9868704700BF97
:104E1000C00B00202DE9F04104464FF02003EFF3D2
:104E2000118683F31288BFF36F8F437B1A0705D572
:104E300086F31188BFF36F8FBDE8F08123F0200265
:104E400042F00801D20920D14173A36813B1204672
:104E500001F026FC04F1180001F0DFFC04F1580712
:104E60004FF00008A56DBD4200D0B5B90120FFF795
:104E7000F9FC104B9B68A342DAD1EFF30583002BBA
:104E8000D6D13046FCF722FCD2E703F05F0343F0B3
:104E90000803437301F0FCFBD7E7284601F000FC50
:104EA00005F1180001F0B9FCC5F878802846FFF735
:104EB00031FDD7E7C00B002008B50648064A074970
:104EC000121A01F083FBBDE80840054A054906486F
:104ED00001F07CBB00000020FC01002014720000E7
:104EE000000000001472000000000020034B1B684B
:104EF0000BB9FEF721B90020704700BFF40B00206A
:104F0000114B10B51C689C420AD1FFF7EFFF6FF000
:104F100000400E4B1B6913B19842A8BF184610BD44
:104F2000FFF7E4FF002CF2D0D4E904321B1A62EB45
:104F3000E072B3F1004F72F10001E8DA002AACBF71
:104F400018460020E5E700BF18010020C00B002034
:104F50000B4A03685268904230B509D043B1D3E997
:104F60000421D0E90445121941EB0501C3E90421EC
:104F7000426813605A600023C0E9003330BD00BFAF
:104F800018010020B3F1FF3F08BFB2F1FF3FF8B5B1
:104F900004461D46164661D081604FF02003EFF3B2
:104FA000118783F31288BFF36F8F013275F1FF33DE
:104FB00024DA3049D1E900206FF001039B1A4FF049
:104FC000FF3262EB00009E1B60EB0500012E70F1CA
:104FD000000301DA01260020C4E90460264ED6F859
:104FE00000C07568B44508BF4FF0000CBCF1000F5D
:104FF0000DD1C4E900652C6074601CE0FFF776FFFA
:10500000013645F10005361845EBE070E4E7DCE9D0
:105010000420D4E90431934271EB000E1FDAD21A56
:10502000DCF8043060EB0100CCE90420C4E900C3E3
:105030001C60CCF804403368B3420BD09C4209D1C9
:10504000FFF75EFF18B10D4B1B69834202D00021B0
:10505000FEF740F887F31188BFF36F8FF8BD9B1AF6
:1050600061EB0001AC45C4E90431C2D0DCF800C0FA
:10507000BCE700BFD004002018010020C00B0020B6
:105080002DE9F8430546FFF7E9FC4FF02003EFF365
:10509000118483F31288BFF36F8F244EDFF8908062
:1050A0003560244DD8F8000032684045D5E9001E2F
:1050B0004FEAE2770BD050B1D0E9043C9A4277EB4B
:1050C0000C0916DA9B1A6CEB070CC0E9043C51186A
:1050D0004EEB0707C5E9001700253560FFF710FF05
:1050E0002946FDF7F7FF84F31188BFF36F8FBDE802
:1050F000F88359184EEBE377D31A3360002200236C
:10510000C0E90423C5E90017FFF722FF84F31188E3
:10511000BFF36F8F836898474FF02003EFF311843C
:1051200083F31288BFF36F8FBCE700BFF40B00203E
:1051300018010020D004002010B54FF02003EFF339
:10514000118483F31288BFF36F8FFDF7F5FF054AD3
:10515000D2E90031C01841F1000184F31188BFF396
:105160006F8F10BDD004002070B504464FF02003AF
:10517000EFF3118583F31288BFF36F8FD0E90A3202
:10518000013342F10002022B72F1000204D3D0E994
:105190000A231749FFF7F6FE236B01332363236AC3
:1051A00073B185F31188BFF36F8F236A2046984748
:1051B0004FF02003EFF3118583F31288BFF36F8F55
:1051C00054F8186FA64200D026B985F31188BFF3B2
:1051D0006F8F70BD304601F0C7FA0023B36785F3C7
:1051E0001188BFF36F8F3046BDE8704001F0ACBA54
:1051F000695100002DE9F047B3F1FF3F08BFB2F15C
:10520000FF3F05461446DDE9086019469146984679
:1052100037D0B0F1FF3F08BFB6F1FF3F37468246B7
:1052200011D050EA06030ED0721C70F1FF330ADB76
:10523000022E844670F10000BCBF02274FF0000C24
:10524000013F4CF1FF3A631C71F1FF330ADB012C83
:1052500071F100032246BCBF0122002112F1FF3987
:1052600041F1FF38284601F0D8FA00232B63C5E945
:105270000A7A4A46434628460349BDE8F047FFF705
:1052800081BEBDE8F08700BF69510000024A0349B2
:10529000034800F045BA00BFA56F0000DD710000B3
:1052A000EA71000010B50A4C23681BB1012323608A
:1052B000002010BD00F0CEF80028F7D001380628F5
:1052C00003D8044B53F8200010BD034810BD00BFA5
:1052D000F80B0020CC6D0000FE8FFFFFBFF34F8F57
:1052E0000549064BCA6802F4E0621343CB60BFF382
:1052F0004F8F00BFFDE700BF00ED00E00400FA059E
:1053000010B4094B09490A4C4FF0FE32C3F800248F
:105310004968C3F80424C3F80824C3F80C24002304
:10532000C4F8003510BC084700B00250200100202E
:1053300000A00250D0E90012014BC3E900127047EF
:105340002001002010B5044630B16368DB0602D5A9
:1053500000232360636010BD024B03485B689847DD
:10536000F3E700BF20010020E86D0000B0B1436802
:1053700093B1DB060ED5012350E8002F194640E813
:10538000001C9CF0000FF7D1012AF5D0BFF35F8F0E
:105390000020704703487047034870476FF4E040AF
:1053A000704700BFE98FFFFFEA8FFFFF68B14368D6
:1053B0003BB1DB0607D5BFF35F8F002303601846C0
:1053C000704703487047034870476FF4E0407047E8
:1053D000EA8FFFFFE98FFFFF10B5044620B10022DE
:1053E00011232260636010BD0148FFF789FFF6E7D3
:1053F000106E000070B5D0E90023134C134D6360AC
:10540000D0E90230C4E902302260114B086818600C
:105410004868586088689860D1E90301D8601961CC
:10542000D5F81831DB060DD50023C5E94533C5E9AC
:105430006E3305F58A709047236805F5DC70BDE88A
:105440007040184770BD00BF30010020100C0020D4
:105450004001002038B500F02FF820B1032400F0FF
:1054600063F8204638BD00F031F898B900F0ACF888
:1054700098B90F4DD5F828391B0EF02B08D1D5F867
:10548000242A0C4B9A420AD0072400F017F8E6E7CA
:105490000624FAE70424204638BD0024F5E701205D
:1054A00000F092F804460028F7D1C5F80C0AD8E7B6
:1054B00000B002500000E02000207047002070473C
:1054C000014BC3F8040A704700B0025010B51148F0
:1054D00000F048F800B110BD0F4800F043F8002874
:1054E000F9D10E4C204600F03DF80028F3D10C4BCA
:1054F0000C481C6000F036F801460028EBD100F0A3
:105500002DF8044608B1204610BD00F03FF82046B3
:10551000FAE700BF780100206C0100207401002030
:105520007C0100207001002008B5084800F024F834
:10553000074800F021F8074800F01EF8064800F080
:105540001BF8BDE8084000F00BB800BF7801002050
:105550006C010020740100207001002000207047C1
:10556000704700BF08B5034B02681B681068984776
:10557000002008BD3001002008B5034B02685B68BD
:1055800010689847002008BD3001002070B5094C14
:10559000094D2069AB68984718B1084B08485B680B
:1055A0009847084AEB68206900211160BDE8704007
:1055B000184700BF400100203001002020010020DA
:1055C000346E00000C0C002070B51B4D1B4E0446C1
:1055D000B26828699047F8B95CB1194C2368B3B137
:1055E000012B1BD0013B23602869F36898470020FA
:1055F00070BD134C216841B9124B0122C3F800253C
:10560000114AD2F81039002BFBD101312160F36827
:1056100028699847002070BD0C4870BD0A4AD2F82E
:105620001039002BFBD1074A6FF07E40C2F80035DD
:10563000FFF746FF2368D5E7400100203001002036
:105640000C0C002000A0025000B00250E98FFFFFB8
:10565000F0B403460A461979DB8800681343DC027C
:105660008768066906D513F4402F03D0DA0748BFD0
:1056700083F44023346801258D4023F48012DB0736
:105680004CBF2C43AC433B683460F0BC184700F07F
:1056900076BF03460A4600681979012303FA01F12F
:1056A00003691B68194203D022B183681B6903E0B8
:1056B000002AFAD08368DB68184738B5002120EA51
:1056C000E0744FF4004540F2E7304FF47A72002363
:1056D000C4FB0501FAF714FDBDE83840FFF77ABBBB
:1056E000034658B1426802F00302012A03D0032A9C
:1056F00004D1026812B10020986070476FF0150065
:1057000070474268816002F00302032A4FF00002F2
:1057100003460CBF006810465A607047002070476F
:105720000FB407B504A951F8040B0191FBF75AF81F
:1057300003B05DF804EB04B07047038B13F007036C
:1057400005D10368002B0CBF002003207047022BFB
:1057500005D1408BB0FA80F0400980007047012BE2
:1057600005D10368002B0CBF0020052070470020E6
:10577000704710B50C4600B111B96FF0150010BD9F
:10578000081DFFF7ADFF0028F9D1A368032BF6D958
:10579000F3E72DE9F0410D4607461946281D9046CE
:1057A0001E46FFF7AEFF044638B13346424629464F
:1057B0003846A446BDE8F0416047BDE8F08110B42A
:1057C0004FF02004EFF3118284F31288BFF36F8F40
:1057D000416110BC0121FBF713B838B50C460546F2
:1057E00058B151B10B6843B14B6833B11C22002151
:1057F00000F000F92C61002038BD6FF01500FBE7C8
:1058000070B505460E46FFF7B4FF041E15DB4FF0DA
:105810002003EFF3118283F31288BFF36F8F6B8B3A
:105820002C8B4FF6FF718B4204F0070407D182F3F3
:105830001188BFF36F8F6FF00A04204670BD022CF1
:105840000CD101336B8382F31188BFF36F8F002378
:10585000224631462846FFF79CFFEEE7062C14D877
:10586000DFE804F004131313041A04000023336068
:105870006B683BB9C5E90066ACB902212846FAF766
:10588000BFFFDAE71E606E60F6E782F31188BFF3B0
:105890006F8F6FF00404D0E782F31188BFF36F8F2E
:1058A0006FF08504C9E782F31188BFF36F8FC4E7F7
:1058B000044608B5084611461A46A047FFF7A4FA61
:1058C000FCF73CF92DE9F84F9A46D3786F2B8046C8
:1058D0000F461546A3F1410B29D024D8582B0CBFF5
:1058E00010260A26DDF82890324600234046394625
:1058F000FAF706FC092AD4B21ED83034B045E4B217
:1059000077F1000709F8014D01D3D14511D82B7863
:105910009B0605D5082E15D1AB7843F00803AB7074
:105920004846BDE8F88F03F0F703702BD7E7082649
:10593000D8E780460F46D7E7BBF1190F94BF37343D
:105940005734DBE7102EEBD1AB7843F01003E6E7DA
:105950002DE9F0410746884615461E461446B442D6
:1059600005D30EB1601B08E02378002BFAD014F8A1
:10597000010B4146B8470028F1DABDE8F0817047D5
:1059800008B50020FBF7FCFB00F003BE01460068F1
:1059900000F0FFBD00210120FFF7F6BF08B5FBF7BF
:1059A00075FEBDE80840FBF74DBF0139034611F80D
:1059B000012F0AB91A70704703F8012BF7E7034665
:1059C00000201A5C02B970470130FAE70346002054
:1059D0001A5C0AB1884200D170470130F8E710B56F
:1059E000431E0A44914200D110BD11F8014B03F847
:1059F000014FF7E7C9B202440346934200D1704712
:105A000003F8011BF9E74FF0FF307047062808D173
:105A10004FF080430122C3F80025BFF34F8F20BF12
:105A2000FDE77047002383F31188BFF36F8F704742
:105A30000369C9B20C2201FB0233186C00F00700A5
:105A400070474FF02003EFF3118283F31288BFF306
:105A50006F8F036803F0C00343F00203036082F317
:105A60001188BFF36F8F704770B50369C9B24FF0EB
:105A70002004EFF3118584F31288BFF36F8F0C2697
:105A800006FB0134246C14F0C00408D0A24206D0F6
:105A900085F31188BFF36F8F4FF0FF3070BD06FBA9
:105AA000013301221A6485F31188BFF36F8F4368B5
:105AB00003EBC1035B6898470020EFE78022FFF704
:105AC000D3BFF8B5069F0469C9B24FF02005EFF3C4
:105AD000118685F31288BFF36F8F0C2505FB0144F7
